:020000000C945E
:100002002F000C9400000C9400000C9400000C943F
:1000120000000C9400000C9400000C9400000C945E
:1000220000000C9400000C9400000C9400000C944E
:1000320000000C9400000C9400000C9400000C943E
:1000420000000C9400000C9400000C9400000C942E
:10005200000000000200040054000000F894EE27A3
:10006200ECBBF1E0FBBFEBBFE5BF8DE0A2E0BB273D
:10007200ED938A95E9F780E094E0A0E6ED9301978D
:10008200E9F7E6E5F0E085919591009761F0A59199
:10009200B59105901590BF01F00105900D92019761
:1000A200E1F7FB01F0CFEFE5EDBFE4E0EEBFC0E624
:1000B200D1E00C946900E0E0E7B9E7EAE6B9E0E0F4
:1000C200E0BF0895369A359BFECFE4B1F5B10895AD
:1000D200F2DFE0E0EBBBE1E0EABBE0E0E5BBE3E35B
:1000E200E4BB19D0EFDF2F01A4E6B0E01FD0E0E2BD
:1000F200F3E0E415F5056CF0A89812D0A898A99A37
:10010200AD9AAC98A4ECB9E011D0A89A09D003D06A
:10011200EECFE7CFFFCFA89AA998AD98AC9A0895F1
:10012200A998AD98AC98A4ECB9E000C0109639F04B
:10013200A89580ED97E00197F1F71197C9F7089517
:00000001FF
